:1000000012C02CC02BC02AC029C028C027C026C0BF
:1000100025C024C023C022C021C020C01FC01EC0D4
:100020001DC01CC01BC011241FBECFE5D4E0DEBF25
:10003000CDBF10E0A0E6B0E0E8EFFCE002C0059024
:100040000D92A83AB107D9F720E0A8EAB0E001C0C4
:100050001D92A43EB207E1F7C1D04CC6D1CFCF92DA
:10006000DF92EF92FF92AC019C01225331092F35B0
:10007000314010F044E650E011B89A0122953295D3
:10008000307F3227207F32270F2EF0E4CF2EFFE182
:10009000DF2EE12CF12CF02DC701B601621B730B92
:1000A000810991099A01220F331F40E050E00CD3DF
:1000B00020B9FF90EF90DF90CF90089512BA88E9B1
:1000C00081BB80E384BB85BB089594EA96BF06B6E6
:1000D00007FEFDCF91B1987F9830C9F790ED93B9A5
:1000E00094E896BF06B607FEFDCF91B1987F983190
:1000F000C9F783B984E886BF06B607FEFDCF81B194
:10010000887F8832C9F763B984E886BF06B607FEE0
:10011000FDCF81B1887F8832C9F784E986BF80E14D
:100120008A95F1F700C0089594EA96BF06B607FED7
:10013000FDCF91B1987F9830C9F790ED93B994E8CD
:1001400096BF06B607FEFDCF91B1987F9831C9F7EB
:1001500083B984E886BF06B607FEFDCF81B1887FEC
:100160008832C9F784EA86BF06B607FEFDCF81B1A3
:10017000887F8031C9F781ED83B984E886BF06B6F0
:1001800007FEFDCF81B1887F8034C9F784E886BF40
:1001900006B607FEFDCF81B1887F8835C9F783B1E8
:1001A00094E996BF089510BC83E389B91BB888E928
:1001B0008AB986E880BD08955D9BFECF8CB908950D
:1001C000CF93DF93EC018881882329F02196F4DF17
:1001D00089918111FCCFDF91CF910895CF93DF9367
:1001E000CDB7DEB7C856D1090FB6F894DEBF0FBE43
:1001F000CDBF11B863DF80E991E031DFD4DF83ED5B
:1002000090E30197F1F700C0000060E08BE65DDF4E
:1002100060E08CE65ADF60E18BE157DF60E18CE162
:1002200054DFDE01A45BBF4F6D96BFAFAEAF6D97DD
:10023000FE01FD966F96FFAFEEAF6F979E01225DB8
:100240003F4FA1963FAF2EAFA197CE014F96A396F9
:100250009FAF8EAFA397DC97A596BFAFAEAFA59724
:10026000FC97A796FFAFEEAFA7970F2EF8EDAF2E36
:10027000F0E0BF2EF02D0F2EFCEC4F2EF0E05F2EA5
:10028000F02D0F2EF8EA2F2EF0E03F2EF02D0F2E3E
:10029000F4EB8F2EF0E09F2EF02D0F2EF2E66F2E56
:1002A000F0E07F2EF02D8FE06D96AEADBFAD6D9777
:1002B000E82F1D92EA95E9F76F96AEADBFAD6F9747
:1002C000E82F1D92EA95E9F7A196AEADBFADA197D3
:1002D000E82F1D92EA95E9F7A396AEADBFADA397BF
:1002E000E82F1D92EA95E9F7A596AEADBFADA597AB
:1002F000E82F1D92EA95E9F7A796AEADBFADA79797
:100300001D928A95E9F783E40FDFF501808384E489
:100310000BDFD50111968C9385E406DFF50182830E
:1003200086E402DFD50113968C9387E4FDDEF501A8
:10033000848388E4F9DED50115968C938BE3F4DE93
:10034000F50186838CE3F0DED50117968C938DE35F
:10035000EBDEF50180878EE3E7DED50119968C93FD
:100360008FE3E2DEF501828780E4DEDED5011B96B5
:100370008C931B972C9130E0322F222711969C9161
:100380001197292BF201318320831296EC91129759
:10039000F0E0FE2FEE2713969C91E92BD2011396E5
:1003A000FC93EE931297D50114966C91149770E01C
:1003B000762F662715969C91692BD20115967C9312
:1003C0006E931497D50116964C91169750E0542FC2
:1003D000442717969C91492BD20117965C934E9314
:1003E0001697D50118960C91189710E0102F00273A
:1003F00019969C91092BD20119961C930E9318976C
:10040000D5011A969C91E82EF12CF92AD2011B965F
:10041000FC92EE921A97C0906000D0906100D101DA
:100420008D919C91A0ECB0E00D90BC91A02D8A1B09
:100430009B0B820F931F8C9D90018D9D300D9C9D79
:10044000300D1124A9963FAF2EAFA997D4012D935B
:100450003C93D10112968D919C9113972091C200EB
:100460003091C300821B930BE80FF91FEC9DC00174
:10047000ED9D900DFC9D900D1124F40193838283DA
:1004800014968D919C9115972091C4003091C500D0
:10049000821B930B680F791F6C9DC0016D9D900DA1
:1004A0007C9D900D11249583848381E090E08C19CC
:1004B0009D0916962D913C911797829FB001839FBD
:1004C000700D929F700D11244C9D90014D9D300D2B
:1004D0005C9D300D1124260F371F37832683189615
:1004E0002D913C911997829FA001839F500D929F5F
:1004F000500D11240C9D90010D9D300D1C9D300D53
:100500001124240F351F318720871A964D915C9155
:100510001B97849F9001859F300D949F300D11246F
:10052000EC9CC001ED9C900DFC9C900D1124820F61
:10053000931F93878287A996FFADA997FF93A896EB
:100540002FADA8972F937F926F926D963FAD6D97C9
:100550003F936C968FAD6C978F93F4D0D401139624
:100560008C9113978F9312968C918F937F926F92A9
:100570006F96BFAD6F97BF936E96EFAD6E97EF938B
:10058000E1D0D40115968C9115978F9314968C9188
:100590008F937F926F92A196BFADA197BF93A096C4
:1005A000EFADA097EF93CED0D40117968C9117970B
:1005B0008F9316968C918F937F926F92A396BFAD77
:1005C000A397BF93A296EFADA297EF93BBD0D401B0
:1005D00019968C9119978F9318968C918F937F927F
:1005E0006F92A596BFADA597BF93A496EFADA497C4
:1005F000EF93A8D0D4011B968C911B978F931A96DA
:100600008C918F937F926F92E1E0F0E0EC0FFD1FF1
:10061000FF93EF9397D00FB6F894DEBF0FBECDBF18
:1006200085E690E0CDDDCE01845B9F4FC9DD8FE68E
:1006300090E0C6DD82E790E0C3DDCE01CD96C0DD5F
:100640008FE690E0BDDD8CE790E0BADDCE018E96BE
:10065000B7DD8FE690E0B4DD86E890E0B1DDCE0155
:100660004F96AEDD8FE690E0ABDD81E990E0A8DD4E
:10067000CE014096A5DD8FE690E0A2DD8CE990E00A
:100680009FDDCE0101969CDD8FE690E099DDECECDC
:10069000F0E020EC30E084EB90E0A8EAB0E068ED18
:1006A00070E08D0141915191D9014D935D939D0170
:1006B000DC014D915D91CD01D8014D935D938D018C
:1006C000E617F70779F7EFCD052E97FB16F40094A0
:1006D0000FD057FD05D014D007FC02D046F408C057
:1006E00050954095309521953F4F4F4F5F4F08955E
:1006F00090958095709561957F4F8F4F9F4F08958E
:10070000A1E21A2EAA1BBB1BFD010DC0AA1FBB1F15
:10071000EE1FFF1FA217B307E407F50720F0A21B87
:10072000B30BE40BF50B661F771F881F991F1A94F4
:1007300069F760957095809590959B01AC01BD011E
:10074000CF010895AEE0B0E0E7EAF3E0AAC20D8978
:100750001E8986E08C831A8309838FEF9FE79E832F
:100760008D83AE01475E5F4F6F89788DCE01019614
:1007700008D0EF81F885E00FF11F10822E96E4E09B
:10078000ACC2ABE0B0E0E6ECF3E07DC26C017B0113
:100790008A01FC0117821682838181FFBFC1CE01CD
:1007A00001963C01F6019381F70193FD859193FF3A
:1007B00081917F01882309F4ADC1853239F493FD1D
:1007C000859193FF81917F01853221F4B60190E0FC
:1007D000C0D1E8CF912C212C312CFFE1F315D8F0BA
:1007E0008B3279F038F4803279F08332A1F4232D02
:1007F00020611DC08D3261F0803369F4232D2160AA
:1008000016C0832D8260382EE32DE4603E2E2AC070
:10081000F32DF8601DC037FC2DC020ED280F2A30C5
:1008200040F08E32B9F436FC75C1232D2064322E8F
:1008300019C036FE06C08AE0989E200D1124922E23
:1008400011C0EAE02E9E200D1124222EF32DF0621D
:100850003F2E08C08C3621F4832D8068382E02C0CC
:10086000883641F4F70193FD859193FF81917F01D3
:100870008111B3CF982F9F7D9554933028F40C5F4E
:100880001F4F9FE399830DC0833631F0833771F09A
:10089000833509F055C020C0F801808189830E5F3F
:1008A0001F4F88248394912C530112C02801F2E039
:1008B0004F0E511CF801A080B18036FE03C0692D97
:1008C00070E002C06FEF7FEFC50138D14C018201AB
:1008D000F32DFF773F2E15C0280122E0420E511C58
:1008E000F801A080B18036FE03C0692D70E002C01F
:1008F0006FEF7FEFC50117D14C01F32DF0683F2E4C
:10090000820133FC19C0822D90E088169906A0F46C
:10091000B60180E290E01DD12A94F5CFF50137FCB5
:10092000859137FE81915F01B60190E012D12110CF
:100930002A9421E0821A91088114910479F7E1C088
:10094000843611F0893639F5F80137FE07C0608129
:100950007181828193810C5F1F4F08C0608171811A
:10096000072E000C880B990B0E5F1F4FF32DFF769F
:100970003F2E97FF09C090958095709561957F4FA8
:100980008F4F9F4FF0683F2E2AE030E0A3011DD12A
:10099000882E861844C0853731F4232D2F7EB22E41
:1009A0002AE030E025C0932D997FB92E8F36C1F013
:1009B00018F4883579F0AEC0803719F0883721F007
:1009C000A9C0E92FE061BE2EB4FE0DC0FB2DF4607E
:1009D000BF2E09C034FE0AC0292F2660B22E06C0E1
:1009E00028E030E005C020E130E002C020E132E044
:1009F000F801B7FE07C060817181828193810C5F2D
:100A00001F4F06C06081718180E090E00E5F1F4F34
:100A1000A301DBD0882E8618FB2DFF773F2E36FEF4
:100A20000DC0232D2E7FA22E891458F434FE0BC046
:100A300032FC09C0832D8E7EA82E05C0B82CA32CB5
:100A400003C0B82C01C0B92CA4FE0FC0FE01E80DF4
:100A5000F11D8081803321F49A2D997EA92E09C041
:100A6000A2FE06C0B394B39404C08A2D867809F020
:100A7000B394A3FC10C0A0FE06C0B21480F4280CEE
:100A8000922C9B180DC0B21458F4B60180E290E08D
:100A900060D0B394F8CFB21418F42B1802C0982C7D
:100AA000212CA4FE0FC0B60180E390E052D0A2FE3C
:100AB00016C0A1FC03C088E790E002C088E590E082
:100AC000B6010CC08A2D867851F0A1FE02C08BE2DF
:100AD00001C080E2A7FC8DE2B60190E03AD0891413
:100AE00030F4B60180E390E034D09A94F8CF8A9441
:100AF000F301E80DF11D8081B60190E02AD081104C
:100B0000F6CF222009F44ECEB60180E290E021D04B
:100B10002A94F7CFF6018681978102C08FEF9FEF6D
:100B20002B96E2E1CCC0FC010590615070400110B1
:100B3000D8F7809590958E0F9F1F0895FC01615006
:100B4000704001900110D8F7809590958E0F9F1FEF
:100B500008950F931F93CF93DF93FB01238121FD12
:100B600003C08FEF9FEF2CC022FF16C04681578134
:100B7000248135814217530744F4A081B1819D013E
:100B80002F5F3F4F318320838C93268137812F5FE6
:100B90003F4F3783268314C08B01EC01FB01008497
:100BA000F185E02D0995892BE1F6D80116968D91F6
:100BB0009C911797019617969C938E931697CE014A
:100BC000DF91CF911F910F910895FA01AA27283044
:100BD00051F1203181F1E8946F936E7F6E5F7F4F0A
:100BE0008F4F9F4FAF4FB1E03ED0B4E03CD0670F86
:100BF000781F891F9A1FA11D680F791F8A1F911DD9
:100C0000A11D6A0F711D811D911DA11D20D009F428
:100C100068943F912AE0269F11243019305D31936A
:100C2000DEF6CF010895462F4770405D4193B3E053
:100C30000FD0C9F7F6CF462F4F70405D4A3318F0FA
:100C4000495D31FD4052419302D0A9F7EACFB4E0AB
:100C5000A6959795879577956795BA95C9F7009763
:100C60006105710508959B01AC010A2E0694579504
:100C7000479537952795BA95C9F7620F731F841F5B
:100C8000951FA01D08952F923F924F925F926F92F1
:100C90007F928F929F92AF92BF92CF92DF92EF920C
:100CA000FF920F931F93CF93DF93CDB7DEB7CA1B8D
:100CB000DB0B0FB6F894DEBF0FBECDBF09942A88B8
:100CC000398848885F846E847D848C849B84AA8460
:100CD000B984C884DF80EE80FD800C811B81AA81ED
:100CE000B981CE0FD11D0FB6F894DEBF0FBECDBFB8
:080CF000ED010895F894FFCF17
:100CF80001002564004779726F2058203A20000DC2
:100D08000A004779726F2059203A20004779726F9C
:100D1800205A203A2000416363656C2058203A200D
:100D280000416363656C2059203A20004163636584
:080D38006C205A203A20000053
:00000001FF
